:020000040800F2
:10000000001800201D060008ED050008EF05000897
:1000100000000000000000000000000000000000E0
:10002000000000000000000000000000F1050008D2
:100030000000000000000000F3050008F5050008BE
:100040009D0600089D0600089D0600089D06000804
:100050009D0600089D0600089D0600089D060008F4
:100060009D0600089D0600089D0600089D060008E4
:10007000FD0500089D0600089D0600089D06000875
:100080009D06000800000000000000009D0600081A
:10009000000000009D0600089D0600089D0600085F
:1000A000000000009D0600089D0600089D0600084F
:1000B0009D060008000000009D0600080D060008CF
:1000C00010B5064C2378002B07D1054B002B02D02E
:1000D000044800E000BF0123237010BD7001002020
:1000E00000000000A4390008044B10B5002B03D019
:1000F0000349044800E000BF10BDC04600000000F6
:1001000074010020A439000802B47146490849006E
:10011000095C49008E4402BC7047C04603B4714676
:10012000490840004900095A49008E4403BC704701
:10013000002243088B4274D303098B425FD3030A26
:100140008B4244D3030B8B4228D3030C8B420DD339
:10015000FF22090212BA030C8B4202D312120902C7
:1001600065D0030B8B4219D300E0090AC30B8B4205
:1001700001D3CB03C01A5241830B8B4201D38B03B3
:10018000C01A5241430B8B4201D34B03C01A524158
:10019000030B8B4201D30B03C01A5241C30A8B429B
:1001A00001D3CB02C01A5241830A8B4201D38B0286
:1001B000C01A5241430A8B4201D34B02C01A52412A
:1001C000030A8B4201D30B02C01A5241CDD2C3099C
:1001D0008B4201D3CB01C01A524183098B4201D318
:1001E0008B01C01A524143098B4201D34B01C01A03
:1001F000524103098B4201D30B01C01A5241C3087B
:100200008B4201D3CB00C01A524183088B4201D3E9
:100210008B00C01A524143088B4201D34B00C01AD5
:100220005241411A00D20146524110467047FFE741
:1002300001B5002000F006F802BDC0460029F7D045
:1002400076E770477047C04670B5144C144D207067
:100250000B780822A3704B782800E3708B78237109
:10026000CB7863710B79A3714B792100E37103F0B3
:1002700017FB322000F010FC002308222100280088
:100280002370A370E37023716371A371E37103F0B2
:1002900007FB322000F000FC70BDC046D0010020FA
:1002A000D801002070B50C4C0C4D08222070A170B4
:1002B0002800210003F0F4FA322000F0EDFB0023C7
:1002C0000822210028002370A37003F0E9FA3220ED
:1002D00000F0E2FB70BDC046D0010020D801002034
:1002E00037B5062268461D4903F052FB6A461C4B8F
:1002F000694613800020FFF7A7FF642000F0CCFBC5
:10030000184B694600200093FFF79EFF962080005F
:1003100000F0C2FB144B2C2500936B4669461D71FF
:100320000020FFF791FF114B002400936B466946B4
:1003300020001C71FFF788FF6A460D4B95706946D7
:1003400020001380FFF780FF6A460A4B694600933E
:10035000094B20009380FFF777FF37BDBC390008B9
:10036000E31500000610072808060B120B080F0003
:100370000F1200001A12150F0728000010B5FA24FA
:10038000A4000A4B1A78D0B2002A07D01A78012AA2
:10039000FCD0FA20C00000F07FFB10BD3921FFF730
:1003A00081FF200000F078FBEBE7C0468C010020C5
:1003B00030B53024102599B0220000210CA803F09C
:1003C000BAFA2A00002101A803F0B5FA1822002188
:1003D00005A803F0B0FA0B940BA82F3C13941094CB
:1003E000119501F0AFFD002801D072B6FEE707239A
:1003F000039001930490043B210001A8029302F0B2
:1004000027F8002801D072B6FEE780230A909B02ED
:1004100005A8059302F0A6F8002801D072B6FEE701
:1004200019B030BDF0B5002587B000F013FBFFF721
:10043000BFFF80213C4BC9021D703C4B5A690A43E7
:100440005A615A690A4080210192019A5A698902C7
:100450000A435A615B690B400293029B00F020F94A
:100460000C22290003A803F066FA0422304C314B19
:100470006261C22223600123FF32E2612000621D1B
:10048000A5616560A560E56023612562D577A362FB
:1004900000F0CEFBA84201D072B6FEE7082303931A
:1004A00080235B010493802320005B0503A905934F
:1004B00000F07EFD051E01D072B6FEE71E48FA2749
:1004C00000F0EAFA1026FFF759FF7F00380000F02D
:1004D000E3FA200000F050FC6421200000F096FCBC
:1004E000200000F0F7FC013E00092D18F6B22000B4
:1004F00000F06EFCADB2002EE8D1F536FF362000DC
:1005000000F03AFC6421200000F080FC200000F0A4
:10051000E1FC2B00C83B984201D2FFF7E1FE30001E
:1005200000F0BAFAEBE7C0468C0100200010024050
:100530009001002000240140B80B000072B6FEE7D5
:1005400001210C4B82B09A690A439A619A690A4068
:1005500080210092009ADA6949050A43DA61DB6971
:10056000054A0B400193019B102311680B43136054
:1005700002B07047001002400000014010B50400B6
:1005800088B01422002103A803F0D5F9144B226887
:100590009A4222D18021134B89009A6912480A435A
:1005A0009A619A690A4080210192019A5A69C902A6
:1005B0000A435A615B690B400293029B012303A922
:1005C00003930233049300F0C7FD00220C201100B6
:1005D00000F072FD0C2000F099FD08B010BDC0467F
:1005E000002401400010024000040048FEE7FEE73E
:1005F0007047704710B500F03DFA10BD10B50248C5
:1006000000F06EFC10BDC0469001002010B50248FD
:1006100000F0C4FE10BDC0469C060020134885466D
:1006200000F0F3F912480168090E124A914205D10F
:1006300011481249016012481249016012481349D9
:10064000134A002302E0D458C4500433C4188C4227
:10065000F9D3104A104C002301E013600432A24287
:10066000FBD303F071F9FFF7DDFEFEE70018002071
:10067000040000001F0000001810024001000000EC
:100680000000014000000000000000207001002078
:10069000303A00087001002094090020FEE70000B5
:1006A00010B50D4C002220000C4902F067FC002818
:1006B00001D0FFF743FF2000094902F079FC002830
:1006C00001D0FFF73BFF200002F07BFC002801D0A7
:1006D000FFF734FF10BDC046D80100200000002005
:1006E0009C000020122301480B8070471C00002052
:1006F000042301480B807047300000200023F0B530
:100700001F00060FF5B22C003734092E00D8073C25
:100710000133DBB20C704F70000102319A42F0D10C
:10072000F0BD00001A2370B50B800B4B0B4C186802
:100730000B4B1B68C01800280BD00A4B0822A11CC9
:100740001D68FFF7DBFF2100042228001231FFF7AC
:10075000D5FF200070BDC046ACF7FF1F340000205D
:10076000B4F7FF1FB0F7FF1F10B5044C0A002100BB
:10077000034802F089FF200010BDC0469C04002001
:10078000C239000810B5044C0A002100034802F0E9
:100790007BFF200010BDC0469C040020CB39000820
:1007A00010B5044C0A002100034802F06DFF200040
:1007B00010BDC0469C040020D839000810B5044C78
:1007C0000A002100034802F05FFF200010BDC04670
:1007D0009C040020E339000803000220032B01D809
:1007E000014AD05C7047C046F139000807B50B4B91
:1007F00002689A4211D18021094B0904DA691F204D
:100800000A43DA610022DB690B4001931100019B6E
:1008100000F052FC1F2000F079FC07BD005C004096
:1008200000100240A62310B59B00C1184033C058E9
:1008300002F0E2FB10BD28234B43C318FC339A6E31
:10084000B62310B59B00C05802F008FC10BD282349
:100850004B43C3185A6AB62310B59B00C05802F028
:1008600043FC10BDB62310B59B00C05802F0E6FC57
:1008700010BD70B543790400022B01D0FFF75EFE76
:10088000B625AD000121605902F0BDFC605902F0AF
:1008900090FC70BDB62310B504009B00C05802F058
:1008A000B5FC637A002B04D00623024A11690B437E
:1008B000136110BD00ED00E010B5437A0400002B79
:1008C00006D00621054A13698B431361FFF770FDBB
:1008D000B6239B00E05802F0A5FC10BD00ED00E03F
:1008E000B62370B5040015489B00C450144BB025C6
:1008F000036082239B0083800223C3710023AD0029
:1009000060514381437200F0D9FC002801D0FFF709
:1009100015FE002260591100182301F0E5FA605914
:1009200058230022802101F0DFFA80236059002241
:1009300081215B0001F0D8FA002070BD9C060020E8
:10094000005C0040B02310B59B00C05800F002FDD1
:10095000FFF742FF10BD10B514001A002300B024A9
:10096000A400005901F0DEF9FFF736FF10BDB023F7
:1009700010B59B00C05801F002FAFFF72DFF10BD23
:10098000B02310B59B00C05801F053FAFFF724FFC5
:1009900010BDB02310B59B00C05801F078FAFFF7E6
:1009A0001BFF10BDB0239B00C35848B2282200286B
:1009B00005DA7F2001404A439B18987C70474A43E0
:1009C0009B185333FF331878F8E7B02310B59B001A
:1009D000C05800F0D2FCFFF7FFFE10BD10B5B024E8
:1009E000A400005901F00CFAFFF7F6FE10BD10B597
:1009F000B024A400005901F0E7F9FFF7EDFE10BDA7
:100A000000487047780900207047704770B50500AE
:100A1000FA200D4B80001978FFF78AFB0B4C010080
:100A20002068FFF785FB00F07DFB04000120002C0F
:100A300009D1032D07D802382200290000F03CFB21
:100A40002000034B1D6070BD5400002050000020AA
:100A5000580000201023064A10B5116803200B43EC
:100A60001360FFF7D3FFFFF76BFD002010BDC046FA
:100A700000200240034A044B11681B785B18136086
:100A80007047C0468C09002054000020014B1868B4
:100A90007047C0468C09002070B50400FFF7F6FFD0
:100AA0000500631C02D0044B1B78E418FFF7EEFF2F
:100AB000401BA042FAD370BD5400002003210368FC
:100AC00070B59A6804000A40012A01D0002070BD68
:100AD0001968114202D1DA681204F7D505229D681F
:100AE0001540012D1ED19968033A0A439A600322EA
:100AF0001A60FFF7CBFF060023689B682B42E5D006
:100B0000FFF7C4FF801B0228F6D923689B682B429D
:100B1000F2D01023A26B01201343A363E36B2B439A
:100B2000E363D4E710230120A26B1343A363E36BB9
:100B30000343E363CBE70422036870B599680400BC
:100B4000114201D1002070BD9968114206D09A6807
:100B5000920703D4102299680A439A60FFF796FF20
:100B60000426050023689B683342EBD0FFF78EFF15
:100B7000401B0228F6D923689B683342F2D0102329
:100B80000120A26B1343A363E36B0343E363DAE740
:100B9000002373B503210193036804009A680A4097
:100BA000012A07D11968114201D0002076BDDA6808
:100BB0001204FAD499681B4A114208D0102301206C
:100BC000A26B1343A363E36B0343E363EEE70122EA
:100BD00099680A439A60144B14491868FFF7A8FAF9
:100BE0000190019B002B19D1FFF750FF0125060052
:100BF00023681B682B42D8D1FFF748FF801B0228CF
:100C0000F6D923681B682B42F2D11023A26B012076
:100C10001343A363E36B2B43E363C7E7019B013BF0
:100C20000193DEE7170000805000002040420F00D3
:100C300070B504000120002C7ED0A36B002B06D1E0
:100C400022003432E36320001370FFF797FCA36B9C
:100C5000DB0600D584E0226893685B0700D57FE05F
:100C6000A16B424B19400633FF330B430321A363AF
:100C700093680B40012B05D1116819420ED1D3683E
:100C80001B040BD41821D3688B43A1680B43D3609A
:100C9000136961689B009B080B431361D368344957
:100CA0000B40D360237E607E9B03C0030343A17E81
:100CB000E068034348030343601DC07F40000343D3
:100CC000A06A0138451EA841000303432069023889
:100CD0004542684180000343E07E012804D1002999
:100CE0002BD1802149020B43C220E169FF308142B0
:100CF00002D0206A01430B438020D168400519438C
:100D0000D160E16A814202D0481E062807D8072533
:100D100050692940A8435061506901435161D2682C
:100D200014490A409A4210D100200323E063A26BC9
:100D30009A43023B1343A36370BD2021A56B294353
:100D4000A163E16B0843E063CEE712230120A26BAD
:100D50009A43023B1343A363E36B0343E363EBE771
:100D60001023A26B01201343A363E5E7FDFEFFFF01
:100D70001902FEFFE7FF3F83036870B59B6804001C
:100D800002205B071AD4250034352B78012B15D0AF
:100D900001232B70637E012B11D1A26B0B4B002022
:100DA0001A4080235B0013431C22A363E063287076
:100DB00023681A609968183A0A439A6070BD200047
:100DC000FFF7E6FE0028E8D0F8E7C046FEF0FFFF98
:100DD00070B506003436337804000220012B12D09F
:100DE000012520003570FFF7A6FE002809D120005C
:100DF000FFF764FE002804D1A36B034A13401D4390
:100E0000A5630023337070BDFEFEFFFFF8B5456992
:100E100004000E00082D0DD003680120DB680C25AE
:100E2000034207D02023A26B3434134363600023B2
:100E30002370F8BDFFF72AFE070023681A681542E1
:100E400023D08022A16B92000A43A263C022D968FA
:100E50001201114213D1A27E002A10D11A68120782
:100E60000DD59A68520728D40C215A688A435A60D3
:100E7000A16B174A11400432FF320A43A263207E5D
:100E8000002823D10C221A60D3E7721CD6D0002E82
:100E90000DD12A0023681B681A401D42CDD10423BE
:100EA000A16B34340B43636003202270C1E7FFF76A
:100EB000EDFDC01BB042ECD8BFE72022A16B0A4376
:100EC000A2630122E16B0A43E263D8E70020B0E7A6
:100ED000FEFEFFFF0368186C70477047704770474D
:100EE0000422F8B5036804001D685E68154201D04D
:100EF000164204D10822154227D0164225D0A26BF3
:100F0000D20604D48022A16B92000A43A263C022BD
:100F1000D9681201114212D1A27E002A0FD12A07EC
:100F20000DD59A68520738D40C215A688A435A6002
:100F3000A26B1E4B1A400433FF331343A3632000FC
:100F4000FFF7CBFF0C2223681A6080273D420BD0AD
:100F50003E4209D08023A26B5B021343A3632000AF
:100F6000FFF7BCFF23681F6010231D4214D01E42F0
:100F700012D0A36A2268012B02D0D368DB0708D500
:100F80000223E16B20000B43E36310231360FFF7A0
:100F9000A6FF102223681A60F8BD2023A26B13431A
:100FA000A3630123E26B1343E363C8E7FEFEFFFF85
:100FB000F7B5002204000192343422780300C56A98
:100FC0000220012A2AD0013820701A689668760714
:100FD0005FD40B684F681E00BC46304F9840103EEF
:100FE000BC453FD0976A38439062802040058542D7
:100FF0000FD0013D062D0CD90720556989680540A1
:10100000A94206D055690140854355615569294378
:101010005161022E03D9002000232370FEBD204819
:101020000168102B1BD01A00113A55426A411D4D20
:1010300052422A4080256D0452190A430260102B47
:10104000E9D1194B19491868FFF772F80A2343438D
:101050000193019B002BDED0019B013BF8E780222E
:101060001204EAE7916A81439162022ED3D80C4AB6
:101070001168102B0BD0113B58424341C0205B42FA
:10108000000403400A481B180B401360C3E7094BD8
:10109000FAE72022996B0A439A63BDE7011000002A
:1010A00008270140000040FF5000002040420F0090
:1010B000FFFFFFFEFFFF7FFF30B5FF2503242A005F
:1010C0000440E400A24089012940D243A140C3B2B8
:1010D00000280ADBC0240B4B80088000C018A40045
:1010E000035913400B43035130BD0F200340083B0D
:1010F00005489B089B001B18D86902400A43DA6127
:10110000F2E7C04600E100E000ED00E0002805DB6A
:101110001F2318401E3B8340014A13607047C0469E
:1011200000E100E08022431E5204012093420DD2D0
:10113000C021074A07485360036A09061B021B0ABD
:101140000B43036200200723906013607047C04682
:1011500010E000E000ED00E00023F0B587B00A6881
:101160001400DC4001D107B0F0BD012514009D4002
:101170002C4000942A4200D194E04A685F009446D3
:101180000322644622400324BC40E4430194541EDD
:10119000012C2ED88668019C2640CC68BC40344384
:1011A000846044680126AC43250064462409344029
:1011B0009C402C434460C568019C25408C68BC4021
:1011C0002C43C460022A16D107250F261D40AD000E
:1011D000AE40DC08A40004190294246A0396260099
:1011E000039CA64334000E69AE402643029C26624F
:1011F00001E0032ADFD1BA400468019D25402A435B
:10120000C02402606246A40222424BD00125264A35
:1012100090279469FF052C43946192699C082A40A9
:101220000592059A214AA400A4180F2202351D40F8
:10123000AD00AA40A66896430022B84208D01C4FD1
:101240000132B84204D01B4F0132B84200D0033201
:10125000AA4067463243A260174A009C9668009DE8
:10126000E4433543FF0201D43500254067469560CD
:10127000D668009D3543BF0201D43500254067463E
:10128000D5605668009D3543BF0301D43500254025
:10129000674655601568009E2E43FF0301D4254024
:1012A0002E00166001335AE7001002400000014092
:1012B00000040048000800480004014070B5040024
:1012C000012500282DD0224D435DDAB2002B04D138
:1012D000A4239B00C254FFF789FA032363552068B7
:1012E00001F0E2F9002322001900012620791032D2
:1012F000984218D10021220008005132FF328B425F
:101300001BD1A2686168206801F0D8F9002301228E
:1013100023736255A27A1D00012A02D1200000F039
:10132000FBFD280070BD137001335670D170116140
:1013300051619161DBB22832DAE7117001315070EE
:10134000D070106150619061C9B22832D7E7C046B1
:101350009102000070B5A425AD00435D0400022099
:10136000012B09D001236355206801F093F920680F
:1013700001F09DFB0020605570BD70B5A425AD0047
:10138000435D04000220012B07D001236355206830
:10139000217301F085FB0020605570BDF0B504009D
:1013A00085B0006801F08BFB802305001B021D4007
:1013B000184201D100F005FC2068821DD38F1BB2BA
:1013C000002B01DB05B0F0BD0F21D38F1940009138
:1013D0000F219AB20B4200D0C0E010231100194037
:1013E0001A4227D10388B64A1340802212021343BF
:1013F0000380030050331A88237CDB00C3189B183A
:10140000B04A20009B181B88626A9B059B0DE36213
:10141000D3186362FFF71BFA237B002BCCD0A16AA1
:1014200023680029C8D18020227B4C3302431A80D4
:101430002173C1E7028880211600090193B20E4092
:101440000A4222D0030050331A88A8235B00E35CD1
:10145000A621DB00C3189B189B4A89009B18220019
:101460001B8851329B059B0DFF32D3616118D288D6
:1014700001F068FD22689549138820000B40802107
:101480000B431380FFF7CEF996E71BB2002B00DB6E
:1014900092E703888D4A250013408022134303807E
:1014A000030050331A88A8235B00E35C5135DB004E
:1014B000C3189B18844AFF359B181B889B059B0DFE
:1014C000EB610DD0696900290AD0EA8801F03AFD84
:1014D0006B69EA6931009B1820006B61FFF7ABF97B
:1014E00021680A8893B2120500D565E7C0229201EF
:1014F0001340934200D15FE70B00734A50331B88BF
:101500008A18D21813889B059B0D13802B69002B1A
:101510000ED1802013880002034313800A886C4B8D
:101520001A40C0239B0153406A4A13430B8043E790
:101530003E2B08D8012558082B40C018138880027C
:1015400003439BB2E9E71F2558092B405D426B41DD
:10155000C01A1388800218435F4BF1E7009B9F007D
:10156000C219138899B21BB20191002B00DBEEE087
:10157000138856490B4080210B4313802823009A7F
:101580005343E3181A001D005D32FF3212785135C3
:10159000FF35002A19D10200503211882A78D20072
:1015A000521849491218521812889205950D002AAE
:1015B00000D1B2E01A005732FC331900FF322B0081
:1015C0001288896E01F0BEFCA7E019005431FF318A
:1015D00009782A78022900D084E08026F601B446F2
:1015E0006546019EFC332E40039606005036029657
:1015F0006646019DD96E354230D0029D2E88D500B9
:101600007619304D361876193588AD05AD0D8D42F9
:101610000DD90021D966910041180E882C4B1E402F
:1016200080239B0173402B4E33430B8002E0491B08
:10163000D966F0D0019B5B0607D59200821813880B
:1016400026490B4026490B431380002D65D02823E3
:10165000009A5343E3181A005932ADE7029D2E88D1
:10166000D5007619184D361876193588AD05AD0DAB
:101670008D420DD90399D966910041180E88144BFB
:101680001E4080239B017340124E33430B8002E0C7
:10169000491BD966F0D0019B5B0607D492008218E3
:1016A00013880E490B400E490B431380002D34D094
:1016B0002823009A5343E3181A005B327CE7C046A4
:1016C0000F8FFFFF02040000060400008F0F0000D0
:1016D0008FBFFFFF808000000080FFFF8F8FFFFF24
:1016E000C0800000920082181688C9493140C94E56
:1016F000314311802A78910041180D880100503142
:101700000988D200521812186D0459D5C2495218CE
:1017100012889205950D002A9DD1282300995943DE
:101720006218FC32106F40191067906E4019906675
:10173000D06E002802D0526E954249D2009A200005
:101740005343E3185133FF331978FFF774F88022BD
:10175000019B2068134200D12EE6C2191388AF49BD
:101760000B40AF490B4328219BB21380009A4A4398
:10177000A318DD7C012D5ED1009A01325143002275
:101780000A51197F914236D04021019D019E0D40A2
:101790000E4239D0597C914221D102005032118839
:1017A0001A7C9D4BD200C3185B18D21813889C4931
:1017B0009B059B0D138013880B439BB213801AE08B
:1017C0009849521812889205950D002AA5D073E702
:1017D0005131FF312068611801F08AF9B7E701291A
:1017E00009D101008C4D503109881B7C4019DB0068
:1017F00040181B181A802823009A5343E318197CB9
:101800002000FFF724F8D7E55A7C002A06D1020011
:10181000503211881A7C834BD200C4E7012AEAD1E6
:1018200002008049503212881B7C4018DB0080186F
:101830001B181D80DFE78026197C019F0291C900DB
:101840008C46019976009D6A374031421BD10600D3
:101850005036368870498619664476183688B6053B
:10186000B60DAE4202D302999F62C9E7596AAD1B19
:1018700089195962D96A10328919D9629D62A118F1
:1018800001F036F998E502004027019E0199503297
:1018900012883E40394200D1D1E05F494618614686
:1018A000B218575A0022BF05BF0DAF4200D2EA1B43
:1018B00080250199ED0129400D009A62002A46D148
:1018C000282300994B43E3185B7C002B30D10200A6
:1018D000503213885249F31863441E88B605B60D7A
:1018E0001E801E880E43B6B21E8013884D4A801893
:1018F000C018604403889B059B0D038003880B433D
:101900009BB2038020000299FEF7A1FF002D00D1B9
:10191000D0E02823009A3E495343E3181B7C2268F9
:101920009B00D21813880B403F490B431380C1E042
:10193000012BE7D1070050373B883A49F31863443D
:101940001A803B884018C01860440280DAE70029FA
:1019500008D0029A910041180D882D4A2A40324D34
:101960002A430A802825009A554365192A003432F3
:1019700001921278012A00D09CE0696AC919696253
:10198000DA6AD219DA622B6B2A6A934217D39B1A4E
:101990002B632823009D6B43E3185D7C93B2002DDD
:1019A00044D1050050352D88751965442E88B6053B
:1019B000B60D2E80002A0ED12A88194E13E0002B76
:1019C00003D1019A13703A00E3E70022019F3A70B5
:1019D0002A631A00DDE73E2A10D80127560817406F
:1019E000F6192A88B602324392B22A802822009D34
:1019F0006A43A218128B01F066F85BE01F275609B4
:101A00003A4057427A41B61A2A88B6023243D4E79E
:101A10008F8FFFFFC0800000020400000F8FFFFFC8
:101A20000080FFFF0604000080C00000012DDDD112
:101A3000020050321288B61866443380D6E7AB49AC
:101A400047186146BA18525A9205920DAA4200D818
:101A5000AE1A80250199ED0129400D009E62002EED
:101A600048D12823009A5343E3185B7C002B32D1E2
:101A700003009F4950331A88401880186044028838
:101A80009C499205920D028002880A4392B202801C
:101A90001B88FB1863441A889205920D1A801A88D5
:101AA0000A4392B21A8020000299FEF7D0FE002D60
:101AB00000D12EE72823009A5343E3181B7C2268A9
:101AC0009B00D21811888C4B194030234B408B4916
:101AD0000B43138070E4012BE5D10300844950339C
:101AE0001A8840188018604406801B88FB186344DD
:101AF0001E80D8E7002908D10299814D890041183C
:101B00000E8835407F4E35430D80282600994E4380
:101B1000A61931003431019109780129CAD1716ABD
:101B200089187162DD6AAD18DD62336B356AAB42CC
:101B300017D35B1B33632823009A5343E3185A7C63
:101B4000ABB2002A34D1020050321288BA18624473
:101B50001688B605B60D1680002D0ED11588654E77
:101B600013E0002B03D1019D2B701500E3E7002249
:101B7000019D32632A701D00DDE73E2D0ED801273E
:101B80006E082F40F6191588B6023543ADB21580A0
:101B90002822009D6A43A218528B2CE71F276E094A
:101BA0003D406F427D41761B1588B6023543D6E72E
:101BB000012AEDD1020050321288BA186244138013
:101BC000E6E743050ED523684F490633DA8F200038
:101BD0000A40DA87FEF74DFE29002000FFF7CDFB13
:101BE000FFF7F0FB430407D5236848490633DA8F33
:101BF0000A40DA87FFF7E6FB802301009B011940CA
:101C0000184204D0236842490633DA8FF0E7C30450
:101C10001AD5042023680233DA8F8243DA87DA8FF9
:101C200000188243DA87B2239B00E25C012A03D1C9
:101C30002000E15400F084F92000FEF73DFE236807
:101C400034490633DA8FD3E7030513D50821236817
:101C50009A1CD08F06330143D187D98F2E4801407B
:101C6000D9870423D18F0B43D3872000FEF712FEC0
:101C7000FFF7A8FB8025284221D0B22023688000EE
:101C8000991DCA8FAA43CA87225C002AEDD104217C
:101C90009A1CD58F54332943D1870821D58F2943E6
:101CA000D18701213C2221541B8820009B0813402E
:101CB000B3229200A35000F043F9FFF783FB8305A2
:101CC0000AD5236815490633DA8F20000A40DA87DF
:101CD000FEF7C8FDFFF776FBC00501D4FFF772FBE6
:101CE00023680F490633DA8F82E7C04606040000F6
:101CF000020400000080FFFFBF8FFFFF8080000014
:101D00008F8FFFFF80C00000FFFBFFFFFFBFFFFFC3
:101D1000FFDFFFFFFFEFFFFFFFF7FFFFFFFDFFFF0D
:101D2000FFFEFFFF70B5050007202824084044434C
:101D300049B22E19002919DA21000124103169183D
:101D4000747408700A61CB70022B01D100230B71EF
:101D5000A424A4002B5D0220012B06D001232B55C7
:101D6000286800F0B9FC0020285570BD210000242F
:101D700051315236FF31FF3669183470E1E70722DE
:101D800028230A40534349B270B50400C018002903
:101D900012DA1033E11801234374A4250A70AD0050
:101DA000635D0220012B06D001236355206800F0FB
:101DB000A3FD0020605570BD5133FF33E1180023AF
:101DC0005230FF300370E8E7F8B507242140213492
:101DD0004C4306193700FC37FB66330000255233AD
:101DE0005136FF33FF363D67BA661D7031702100F2
:101DF0005131FF314118006800F07AFE2800F8BD2B
:101E000070B50724214021344C4306193500726215
:101E100001223435B3622A7031742100002510315B
:101E2000F562336372744118006800F061FE2800A7
:101E300070BD072270B5037904000A400120934267
:101E400019D348B22823002816DA53431900012079
:101E50001031E318611858740123A4258B700A709F
:101E6000AD00625D02209A4205D06355206800F003
:101E7000BDFD0020605570BD4B4319000020E318E4
:101E800051315233FF31FF3361181870E4E70F23EB
:101E900070B5027904000B4001209A421BD307223F
:101EA00028230A40534349B2E018002914DA1033BA
:101EB000E118012343740025A4268D700A70B60032
:101EC000A35D0220012B06D00123A355206800F05A
:101ED000ADFD2800A55570BD5133FF33E118002337
:101EE0005230FF300370E6E730B528240D060BD5DD
:101EF000072529404C431034001999B2002A07D114
:101F00000273C180002030BD4C435134FF34F3E7ED
:101F1000012283600273F5E703680200B420012107
:101F200010B58000B22411500020A4001055543385
:101F30001A8811430222198019880A431A8010BD99
:101F400070470000F0B5040085B000284ED003684B
:101F5000DB0733D423689B0700D58AE023681B077F
:101F600000D5CAE023685B0700D5EDE02368DB06F7
:101F70001AD562690423BB4D012A00D056E1696B72
:101F800002270B436B636B6B1A436A63FEF77EFD9C
:101F900006006B6B3B4200D141E1F8216A6BA369FB
:101FA0008A43DB0013436B6323689B0600D565E11E
:101FB000636A002B00D0A4E100202FE00C22A94D81
:101FC0006B681340042B0BD06B681340082B0FD1A8
:101FD000C0226B685202134080225202934207D102
:101FE0002B689B03B6D56368002BB3D1012015E0A5
:101FF0006368012B14D180232A685B0213432B6092
:10200000FEF744FD80270600BF022B683B42A1D1AA
:10201000FEF73CFD801B6428F7D9032005B0F0BD16
:10202000002B16D12B68904A802713402B602B6819
:102030008E4ABF0213402B60FEF728FD06002B6876
:102040003B4200D186E7FEF721FD801B6428F6D9CC
:10205000E3E7052B05D180232A68DB0213432B60BD
:10206000C9E72B68804A13402B602B687F4A1340D6
:10207000C5E70C227B4D6B6813420BD06B68134095
:10208000082B15D1C0226B68520213408022120225
:1020900093420DD12B689B0702D5E368012BA5D194
:1020A000F8212A6823698A43DB0013432B6055E734
:1020B000E2680123002A0FD02A68022713432B600D
:1020C000FEF7E4FC06002B683B42E9D1FEF7DEFC9C
:1020D000801B0228F7D9A0E72A6802279A432A60C2
:1020E000FEF7D4FC06002B683B4200D136E7FEF732
:1020F000CDFC801B0228F6D98FE7E2690123594DF8
:10210000002A10D06A6A022713436B62FEF7BEFCF6
:1021100006006B6A3B4200D024E7FEF7B7FC801B49
:102120000228F6D979E76A6A02279A436A62FEF7BB
:10213000ADFC06006B6A3B4200D113E7FEF7A6FC3C
:10214000801B0228F6D968E780220021454D520500
:10215000EB690091134208D1EB691343EB61EB6922
:1021600013400393039B012300938027404E7F007D
:1021700033683B4215D0A368012B22D12A6A13434E
:102180002B62FEF783FC022706002B6A3B423FD0FE
:10219000009B012B00D0E9E6EB69364A1340EB6166
:1021A000E4E633683B433360FEF770FC019033682C
:1021B0003B42E0D1FEF76AFC019BC01A6428F6D9C5
:1021C0002BE70122002B14D12B6A022793432B62A9
:1021D0002B6A033293432B62FEF758FC06002B6AEE
:1021E0003B42D5D0FEF752FC234B801B9842F6D9D8
:1021F00013E7052B05D1296A013B0B432B622B6AA0
:10220000BDE72B6A934304222B622B6A9343B7E703
:10221000FEF73CFC184B801B9842B6D9FDE6FEF752
:1022200035FC801B022800D8B3E6F6E6053203D160
:102230006A6B9A436A63B0E66A6B02271343012212
:102240006B636B6B93436B63FEF720FC06006B6B59
:102250003B4200D1A8E6FEF719FC801B0228F6D904
:10226000DBE6C04600100240FFFFFEFFFFFFFBFF62
:1022700000700040FFFFFFEF881300000C22554D57
:102280006B681340934209D06B681340082B0ED142
:10229000C0226B6852021340934208D16B6B9B03C0
:1022A00000D485E6236A012B00D09FE680E6236AEE
:1022B000002B13D080236A6B5B0213436B63FEF722
:1022C000E5FB80270600BF026B6B3B4200D06FE648
:1022D000FEF7DCFB801B0228F6D99EE66B6B3E4ABC
:1022E000802713406B63FEF7D1FB0600BF026B6BC8
:1022F0003B4200D15CE6FEF7C9FB801B0228F6D901
:102300008BE60C21334D6A680A40082A47D0334ACD
:10231000022B32D12B68802713402B60FEF7B6FBCF
:102320000600BF042B683B4221D10F22EB6A8026B6
:102330009343226BB6041343EB62A16AE36A6A68B3
:102340000B4327490A4013436B6080232A685B04D0
:1023500013432B60FEF79AFB04002B68334200D036
:102360002AE6FEF793FB001B0228F6D955E6FEF796
:102370008DFB801B0228D5D94FE62B6880261340A1
:102380002B60FEF783FB0400B6042B68334200D1B8
:1023900012E6FEF77BFB001B0228F6D93DE6012B77
:1023A00000D123E6C0216B68A06A4902EA6A19409D
:1023B000814200D01AE60F210A40216B8A4200D0E8
:1023C00014E6F02292031340E26A934200D1F3E54F
:1023D0000CE6C04600100240FFFFFEFFFFFFFFFEBD
:1023E000FF7FC2FF0C2070B5134D6B6818400828A2
:1023F00008D00C38431E9841104B40421840104BF7
:10240000C01870BD0F200F499A0C02408C5CEA6A1C
:102410000D490240895CC0228020520213404002D4
:10242000834201D1094802E09342FBD10448FDF701
:102430007FFE6043E5E7C0460010024000A69DFD18
:10244000006CDC02053A0008153A000800127A0018
:10245000F7B504000F00002801D10120FEBD0122C4
:102460003A4D2B6813408B421CD32268930722D429
:10247000D2072FD401232A681A40BA4257D82368BA
:10248000334D5B075AD4FFF7ADFF6B68314A1B062B
:102490001B0FD35C3049D84008600320FEF7B6FA22
:1024A0000020DBE72B6893430B432B602B68134022
:1024B0008B42D2D1D9E72649530704D5E023486897
:1024C000DB0003434B60F0204B688343A068034369
:1024D0004B60CDE762681E4E012A03D133689B032F
:1024E00005D4BAE7022A1AD133689B01B5D5032176
:1024F00073688B4313437360FEF7C8FA01900C2393
:1025000072681A4063689B009A42B3D0FEF7BEFA25
:10251000019BC01A114B9842F1D903209EE7032A70
:1025200001D1736BDBE733689B07E0D495E72A683A
:102530009A432A602A681A42A1D08EE76B68084A3B
:102540001340E26813436B609DE7C04600200240E1
:1025500000100240F53900085000002088130000E8
:10256000FFF8FFFFF0B50368050085B0DB032BD54E
:1025700080220021414C5205E3690091134208D1A9
:10258000E3691343E361E36913400393039B01236E
:10259000009380273A4E7F0033683B423BD0216A4C
:1025A000C022080092006B68364E1040114244D1A0
:1025B000236A6A68334013432362009B012B03D1D3
:1025C000E369314A1340E3612B68DA0706D503203B
:1025D0002A490A6B8243A86802430A639A0606D511
:1025E000102026490A6B8243E86802430A639A0373
:1025F00006D5802021490A6B8243686902430A6339
:1026000000205B0517D540211C4A136B8B432969B9
:102610000B4313630FE033683B433360FEF736FA36
:10262000019033683B42BAD1FEF730FA019BC01AE1
:102630006428F6D9032005B0F0BD13408342B7D01B
:102640008022236A206A1900520202432262226A0F
:102650000E483140024022622162DB07A8D5FEF716
:1026600015FA07000222236A1342A1D1FEF70EFADF
:10267000074BC01B9842F5D9DCE7C046001002406A
:1026800000700040FFFCFFFFFFFFFFEFFFFFFEFFBA
:1026900088130000821D03000020D087014A023306
:1026A000DA87704780BFFFFF0230C38F024A1340B2
:1026B000C38700207047C0467F400000821C030093
:1026C00001210020D18782B0D0879A1D5033D08756
:1026D000188002B070470000F7B50E787A4AB30050
:1026E000C3181C88CF781440012205000092032FE4
:1026F00008D83800FDF708FD02423F3C80229200D6
:1027000014430097714A1443A4B21C801888704C7B
:1027100020403043104380B21880F0008446087B8C
:10272000AC4450350195002800D06BE0CD88487846
:102730006D086D00002823D080200199C000098811
:10274000614409180D801988490604D5198821406B
:10275000604C21431980604D012F00D1AEE0202153
:102760001C882C4061400A4392B200981A80FEBD3A
:10277000C022D200144300220092C3E78022F8E76F
:10278000019809690788554867443F1801983D80BA
:102790000588534865442D182F88BF05BF0D2F802D
:1027A000002915D1802729883F02394329801988BB
:1027B000490404D5198821404A4C214319804A49CB
:1027C0001C880C40C021002E00D080218901C9E75F
:1027D0003E2908D801204F0801407F182988BF02F0
:1027E000394389B2E2E71F204F0901400800414206
:1027F00041417F1A2988BF0239433C4F0F43BFB282
:102800002F80D4E71D88022F3AD1394E2540354319
:1028100001981D80058880200E896544C0007608D7
:102820002D18760001982E8005884E892B48654426
:1028300076082D1876002E804978274E8C46802108
:102840006046294DC90100281FD11F880F4204D0BE
:102850001988244F2140394319801988490604D525
:10286000198821401B4C21431980C0211C888901F3
:102870002C406140114389B219801988314072E7B8
:102880001C4E35401543ADB2C2E71888084204D04B
:10289000198814482140014319801988490604D534
:1028A000198821400B4C21431980012F09D0202188
:1028B0001C8834406140114389B21980198829402D
:1028C00051E719883140F6E78F89FFFF8080FFFFCD
:1028D0008F8FFFFFC0800000BF8FFFFF0404000048
:1028E0000604000080C000008FBFFFFF0080FFFFD4
:1028F000808100008F8EFFFFF0B50B784A78097B4E
:102900009B00C018314B00291AD1002A0CD0028834
:10291000520605D502882E490A402E490A430280F4
:1029200002882D490A402FE00288520405D502880A
:1029300027490A4029490A43028002882849F1E7C9
:102940008027234E244D2649FF01002A21D10288E9
:102950003A4204D00288214C32402243028002884D
:10296000204C520604D502883240224392B20280A3
:10297000028832401443A4B2048002880A401A43F9
:1029800092B2028002882A4013439BB20380002047
:10299000F0BD0288144C3A4204D0028832402243EF
:1029A00092B202800288520604D50288094F324052
:1029B0003A430280028832401443A4B20480028861
:1029C0002A401A4392B202800288ABE78080FFFF60
:1029D0008F8FFFFFC0800000BF8FFFFF80C000000F
:1029E0008FBFFFFFC080FFFF80C0FFFF0B780C4A46
:1029F0009B00C0184B780188002B08D0094B194068
:102A000010234B4013439BB2038000207047064BBA
:102A1000194080235B014B401A4392B20280F4E7D5
:102A20008080FFFFBF8FFFFF8FBFFFFF0B7B002B5F
:102A300019D10B789B00C0184B78002B15D0038858
:102A40005B0605D50388104A1340104A13430380E0
:102A5000CB78012B07D00E4B02881A40202353401D
:102A60000C4A134303800020704703885B0405D59C
:102A70000388054A1340084A13430380074B028822
:102A80001A40C0239B01EAE78F8FFFFFC080000040
:102A9000BF8FFFFF8080000080C000008FBFFFFF5E
:102AA000002902D180234C3003800020704780220F
:102AB0005830038812021343038000207047063009
:102AC000C08F80B2704730B580240133E400121902
:102AD0005B0880185B00CB18401A44188B4200D169
:102AE00030BD4A780D7812022A4322800231F4E781
:102AF000F0B50C0049780500227B87B0012900D091
:102B00001BE12369A76902939F4200D91F002B0094
:102B1000503361690193002A1DD1BFB23B00E288A6
:102B20002800FFF7D0FF019BBA4A19882378AA181A
:102B3000DB0052189B181F802378B74A9B00EB18C4
:102B40001988114030224A40B4490A4392B2002009
:102B50001A8007B0F0BD2278E0789300D200266A90
:102B6000EB180392022800D0D1E0029AB24200D3BF
:102B7000BBE01A88AA48F61B1040AA4A10431880E6
:102B80001B8840209C466246024005926246CB1953
:102B900004932662BBB2024255D0019A1288944631
:102BA000A14AA818039A60448218138062892800F9
:102BB000FFF789FF049B029A63610023B24201D2AE
:102BC000F31B3E0062782362B3B2002A2ED1019A31
:102BD00090491088227869180918D2005218118873
:102BE0008905890D1180002E0AD1802011880002EC
:102BF00001431180228904992800FFF764FF9BE7B5
:102C00003E2E08D8012170083140401811888002FA
:102C1000014389B2EDE71F203040710946427041FF
:102C2000091A1088890208438049F1E7012AE1D195
:102C30002A0078495032108822786918D200091881
:102C400052181380D6E7019A12889446714AA81840
:102C5000039A60448218138022892800FFF733FF0B
:102C6000049B029A6361059BB24201D2F31B3E00B2
:102C700062782362B3B2002A2AD1019A6A49108885
:102C8000227869180918D200521811888905890D0F
:102C90001180002E06D1802011880002014311808E
:102CA0006289A8E73E2E08D80121700831404018FB
:102CB00011888002014389B2F1E71F2071090640A3
:102CC000704246411088891B890208435749F1E741
:102CD000012AE5D12A005449503210882278691817
:102CE000D200091852181380DAE71888504F4B4A5F
:102CF0003840104380B21880019B039A1888454BD6
:102D0000EB181B189A18B3B21380228974E718883D
:102D1000F61B019A26621688BBB2400607D5424AC6
:102D2000A818039A801982181380628964E7394AC7
:102D3000A818039A80198218E6E7002A22D1A3690D
:102D400021698B4201D95A1A0B00A2612A00503224
:102D500010883549227869180918D200521811884C
:102D60008905890D1180002B00D1CCE03E2B00D9C4
:102D7000CFE0012059080340C918138889020B438A
:102D80009BB2C4E0E378022B00D082E0002956D148
:102D9000204B503001882278EB185B18D200D218F3
:102DA00013889B059B0D13802369002B1CD1802663
:102DB00011883602314311801B4900882278691836
:102DC0000918D200521811888905890D1180002B2D
:102DD00030D03E2B52D8012059080340C91813881F
:102DE00089020B439BB229E03E2B08D801215E08E3
:102DF000194076181188B602314389B2DBE71F26E5
:102E00001E4077427E415909891B168889020E436C
:102E10000649F1E702040000BF8FFFFF8080FFFF3B
:102E20008F8FFFFF80810000060400000080FFFFFD
:102E30008F8EFFFF8021138809020B431380E36903
:102E4000002B0FD0237838499B00EB181A880A40D2
:102E50008A4201D0002A05D11A8834490A403449EF
:102E60000A431A802378334A9B00EB1819881140D3
:102E7000C02292014A4030490A4368E61F2059099E
:102E8000034058424341C91A1388890219432B4B06
:102E9000A7E70120834200D05BE6A36922690020F6
:102EA000934201D9981A1300A0610029DAD12800B1
:102EB000234950300688227869188919D20052189F
:102EC00011888905890D1180002B06D18026118873
:102ED00036023143118000883BE73E2B08D80121A0
:102EE0005E08194076181188B602314389B2F1E7BD
:102EF0001F261E4077427E415909891B1688890288
:102F00000E430E49F1E78021138809020B43138019
:102F1000A8E71F205909034058424341C91A1388A2
:102F200089021943054B2AE7404000008F8FFFFFBD
:102F3000C08000008FBFFFFF808000000080FFFF87
:102F400002040000F0B580255C08ED00521926004F
:102F50000D008018471A7A19002E07D16400001955
:102F60000919DB0701D503880B70F0BD1288013EFB
:102F700092B22A70120A6A700235ECE7022310B589
:102F8000002813D0AD239B00C458002C01D000248E
:102F9000C450002902D0AC239B00C150A7230121BB
:102FA0009B00C1540270FDF79BFC0023180010BD6C
:102FB00003000220002903D0AD2200209200995086
:102FC000704710B5FDF7BEFC002010BDAD239B007F
:102FD000C25810B50223002A04D013689847431E34
:102FE00098414300180010BDAD2310B59B00C35895
:102FF0005B689847002010BDAA239B0070B5C518D8
:103000000400280000F022FBA52301229B00E250CF
:10301000114BE25A163BE2501033E15C1F230B4088
:10302000012B09D0022B0CD0002B0FD1290020003E
:1030300000F01EF9002070BD2900200000F04EFABB
:10304000F8E72900200000F071FAF3E77F23200061
:103050009943FDF795FCEDE7AE02000070B50D0059
:1030600004001100002D2ED1A5239B00C258032A75
:1030700022D102005532FF32D368106983420AD947
:103080001B1AD36082B2984200D99AB2200000F095
:1030900032FC280070BDAD239B00E3581B69002B58
:1030A00006D0A7229200A25C032A01D120009847F3
:1030B000200000F028FCECE7052AEAD12900C550E1
:1030C000FDF75EFCE5E7AD239B00C3589B69002B31
:1030D00008D0A7229200825C032A03D129009847D6
:1030E0000025D6E70225D4E7F8B50D00040011004D
:1030F000002D4DD1A5239B00C358022B41D1036A5B
:10310000466AB34213D99B1B03629AB200F0EBFBF1
:103110002B002A0029002000FDF769FCA8239B0052
:10312000E25C012A01D10022E2542800F8BDC769FF
:1031300031003800FDF782F800290DD1BE420BD8CE
:10314000A626B600A3599F4206D22A0029002000D5
:1031500000F0C9FBA551DBE7AD239B00E358DB681A
:10316000002B06D0A7229200A25C032A01D12000E6
:10317000984780212000FDF703FC200000F0CFFBE2
:10318000CCE704229343C9D18021FDF7F9FBC5E7C1
:10319000AD239B00C3585B69002B08D0A722920087
:1031A000825C032A03D1290098470025BDE7022548
:1031B000BBE7002270B5040011004023FDF7CBFBF4
:1031C000230001254026FC338021DD659E66002218
:1031D00033002000FDF7BFFBA72300219B00A56162
:1031E0006662E554083BE15010336160E1501433EE
:1031F000E3588B4205D0AD239B00E35820005B6869
:103200009847002070BD017400207047A7239B00E1
:10321000C15C034A81540422C25400207047C04656
:103220009D020000A7239B00C25C042A02D1024A2F
:10323000825CC254002070479D020000A72310B595
:103240009B00C35C032B06D1AD239B00C358DB69F5
:10325000002B00D09847002010BD10B5040080213D
:10326000FDF78EFB00212000FDF78AFB10BD00005A
:1032700060220B7873B513400D00190092182039A5
:103280000400114212D0002B00D096E06878092883
:1032900000D992E0FCF742FFF0000D01910005011A
:1032A0009100830012009100DA00A400AD239B007E
:1032B000C35829009B689847002076BD00236A46C2
:1032C000D3806B88180A0138062876D8FCF71CFFD3
:1032D0000417267575404B00AC239B00E358207CF7
:1032E0001B686A46911D98476B46D988EA88002971
:1032F00050D0002A43D1200000F005FBDCE7AD23CD
:10330000227C9B00E358002A06D19B6A6A46901DE6
:10331000984702234370E7E7DB6AF7E7D8B205284E
:103320004BD8AC239B00E358FCF7EEFE03080A0CD5
:103330000E105B68002B40D0207CD2E79B68F9E739
:10334000DB68F7E71B69F5E75B69F3E79B69F1E782
:10335000237C002B31D1AD236A469B00E358901D9E
:103360005B6B9847C0E7237C002B26D1AD236A46D0
:103370009B00E358901D1B6B98470723CAE70B1C63
:10338000914200D9131C69469AB2CB8001002000FB
:1033900000F09BFAEB88002B00D08DE7ABE7AB8801
:1033A000002B0AD1EB88002B07D16E887F2E04D822
:1033B000A725AD00635D032B03D12000FFF74DFF70
:1033C0007AE7444BF1B2E1542000FDF7FEFA200009
:1033D00000F099FA0223002E00D1012363556BE718
:1033E000A9783D4D29700129E7D8A7239B00E25C0D
:1033F000022A09D0032A15D02000FFF72EFF200053
:103400002978FFF7F1FD57E7002900D173E7012183
:1034100003226160E2542000FFF7D8FD022800D0AB
:1034200069E7CAE7002906D102222000E254616060
:10343000FFF7DAFD5FE76168012900D15BE7C9B2F8
:103440002000FFF7D1FD29786160E4E7EA88012ACE
:10345000B3D1A7239B00E35C022B06D8002BACD092
:1034600000232100A360083102E0211D032BA4D119
:10347000200000F02AFA1FE7A7239B00E35C013B32
:10348000022B9AD8EB88022B97D1A9239B00E258F4
:103490000323002A00D1023B21000222E3600C3109
:1034A000E6E76B88012B00D006E7A9229200A35023
:1034B00021E7A7239B00E35C013B022B00D97CE7BB
:1034C0006B88012B00D0F7E6A92300229B00E25075
:1034D00011E7C0469E0200009009002060220B7890
:1034E00070B51A4004000D00402A01D05B0619D4C3
:1034F000A7239B00E35C013B022B13D82B79012B04
:1035000010D8AD239B00E35829009B682000984702
:10351000EB88002B04D1002802D1200000F0F3F941
:10352000002070BD2000FFF798FEF9E770B50A781B
:1035300004000B00888860210A4015004918203DCE
:103540000D422BD0002A39D15A78C1B2012A48D075
:10355000032A2CD0002A31D1A7239B00E35C022B45
:1035600059D0032B2AD10F2314220B405343E318C5
:10357000000660D59B69002B20D07F230B400133D0
:103580005343E51800204B0604D02000FDF70AFA4B
:10359000431E984102222900286048E0AD22920093
:1035A000A2581900200092689047002070BDA72201
:1035B0009200A25C022A24D0032A03D02000FFF745
:1035C0004CFEF2E75A88002A07D14A0605D0DB886C
:1035D000002B02D12000FDF7D3F9200000F093F971
:1035E000E3E7A7229200A25C022A0AD0032AE5D1CF
:1035F0005B88002BD9D14B06EFD02000FDF7C9F92D
:10360000EBE74B06DAD02000FDF7BAF98021200065
:10361000FDF7B6F9C9E74906D0D121005531FF3190
:10362000000601D54139FF39002302220B6020003A
:1036300000F04BF9B9E7FC33DB6D002BBED07F23E4
:103640000B405A435532FF32A5189BE70B780370A5
:103650004B784370CA788B7812029B1843804A7962
:103660000B7912029B188380CA798B7912029B18FE
:10367000C380704710B504008021FDF781F9002157
:103680002000FDF77DF910BD70B50025461EA8424B
:103690000FD02B000135745D002CFAD1DBB2013361
:1036A0005B0013800B7003234B70013B0578002DEA
:1036B00000D170BD5A1CCD54D2B202330130DBB2FE
:1036C0008C54F3E72923038000487047D40000207E
:1036D000292303800048704700010020292303802C
:1036E0000048704744010020AE239B00C3580020CF
:1036F000187370470A230380004870473801002080
:1037000070B5B02501230A4CAD00190022004059C4
:10371000FEF75AFB217802220800064B10401142A6
:1037200003D0013A1A70002070BD1870FBE7C04644
:10373000910900208C010020F7B5AE229200865836
:103740006A4603000878971D002204003A80603220
:10375000144010421ED0202C34D148780238092859
:1037600030D8FCF7D1FC140A2F2F2F2F2F2F100544
:103770008B78336000242000FEBD01223100180048
:1037800000F0A3F8F6E74B881B0A7360F2E701220A
:10379000311DF4E74D780B2D14D82800FCF7B4FC4C
:1037A000061212121212171212123039A7229200A8
:1037B0009A5C032A06D139001800013A00F085F816
:1037C0002C00D8E71800FFF755FF0224D3E74A88FA
:1037D000120A222A0AD1C9880A1C3F2900D93F228D
:1037E000104992B2180000F070F8C4E7212AE9D11C
:1037F000C9880A1C092900D909220B4992B2F1E7AC
:10380000A72292009A5C032ADCD13100023A0831E7
:10381000E8E7A72292009A5C032AD3D18B78B360A1
:10382000A9E7C0465C0000202C01002070B5AE2541
:10383000040000268121AD00FDF799F86059E66289
:10384000B04202D0FDF7E0F86651002070BD0000E4
:1038500070B505000124082303228121FDF77BF8C0
:103860000322210023002800EC62FDF774F82B00EE
:10387000FC331C671020AE26FDF7C2F8B60023000B
:10388000A85121002800054AFDF7B1F8AB592000E6
:10389000002B01D00020187370BDC0469109002094
:1038A0001300A72210B59200825C032A0BD1AE222E
:1038B00092008258147B002C05D1013414730A0045
:1038C0008121FDF78BF8002010BD1300A52210B553
:1038D0000224920084500A00C36100210362FDF7B4
:1038E0007DF8002010BD10B513000A000021FDF77F
:1038F00075F8002010BD10B513000A000021FDF777
:1039000076F8002010BDA52304229B0010B5C250FC
:1039100000231A001900FDF761F8002010BDA5234F
:1039200005229B0010B5C25000231A001900FDF7B4
:103930005EF8002010BD03008218934200D170474A
:1039400019700133F9E7000070B500260C4C0D4DDD
:10395000641BA410A64209D1002600F023F80A4CEB
:103960000A4D641BA410A64205D170BDB300EB58EC
:1039700098470136EEE7B300EB5898470136F2E777
:10398000283A0008283A00082C3A0008283A00088B
:10399000002310B59A4200D110BDCC5CC454013351
:1039A000F8E70000F8B5C046F8BC08BC9E46704772
:0C39B000F8B5C046F8BC08BC9E46704745
:1039BC000000000000004C6F676974656368005577
:1039CC00534220526563656976657200484944200C
:1039DC00436F6E6669670048494420496E7465728E
:1039EC006661636500000201020000000000000037
:1039FC000001020304060708090203040506070870
:103A0C00090A0B0C0D0E0F1010010203040506071A
:0C3A1C0008090A0B0C0D0E0F1000000032
:043A2800E9000008A9
:043A2C00C1000008CD
:103A3000E5060008F1060008690700088507000888
:103A400025070008A1070008BD07000812010002B1
:103A5000000000406D042BC50002010203010000BC
:103A6000040309041A030000000000000000000025
:103A70000000000000000000000000000000000046
:103A800000127A0001000000040000000501090690
:103A9000A101050719E029E7150025017501950821
:103AA00081029501750881039505750105081901C5
:103AB0002905910295017503910395067508150076
:103AC00025E70507190029E78100C00051380008E3
:103AD0002D38000839370008000000000000000001
:103AE000E93600080137000800000000000000006F
:103AF00000000000D1360008C5360008DD36000899
:103B0000F536000809022900010100E0320904002D
:103B1000000203010100092111010001223F0007F9
:103B200005810308000A0705010301000A000000DF
:103B300009022900010100E032090400000203012A
:103B40000100092111010001223F0007058103083E
:103B5000000707050103010007000000092111010A
:103B60000001223F000000000A06000200000040A1
:103B70000100000009022900010100E032090400EF
:103B8000000203010100092111010001223F000789
:103B900005810308000A0705010301000A0000006F
:040000050800061DCC
:00000001FF
